:020000040800F2
:100000000028002069160008F9150008FF150008EF
:10001000051600080B160008111600080000000065
:10002000000000000000000000000000171600089B
:1000300023160008000000002F1600083B160008D9
:10004000B1160008B1160008B1160008B116000874
:10005000B1160008B1160008B1160008B116000864
:10006000B1160008B1160008B1160008B116000854
:10007000B1160008B1160008B1160008B116000844
:10008000B1160008B1160008B1160008B116000834
:10009000B1160008B1160008B1160008B116000824
:1000A000B1160008B1160008B1160008B116000814
:1000B00049160008B116000800000000B11600083B
:1000C000B11600080000000000000000B116000892
:1000D00000000000B1160008B11600080000000082
:1000E000B1160008B1160008B116000800000000A3
:1000F0000000000000000000000000000000000000
:0C01000000000000000000005FF808F1A3
:10010C0010B5054C237833B9044B13B10448AFF345
:10011C0000800123237010BD480000200000000067
:10012C000C2D000808B5034B1BB103490348AFF372
:10013C00008008BD000000004C0000200C2D0008C1
:10014C0080B400AF064B1B68012B04D1044B00227A
:10015C001A60012300E000231846BD4680BC70479E
:10016C006400002080B400AF064B1B68012B04D147
:10017C00044B00221A60012300E000231846BD4600
:10018C0080BC70476800002080B400AF064B1B6831
:10019C00012B04D1044B00221A60012300E0002340
:1001AC001846BD4680BC70476C00002080B400AF80
:1001BC00034B01221A6000BFBD4680BC704700BFD4
:1001CC006400002080B500AF224B1B68224A1360EC
:1001DC00224B1B681F4A13604FF40051204801F05A
:1001EC004FFD03461A461D4B1A601B4B1A68194BE0
:1001FC001B689A422CD1174B1A68184B1B689A42F1
:10020C0026D1184B1A68154B1B689A420ED0134B0B
:10021C001B68144A1360114B1B68002B18D1FFF795
:10022C00C5FF114B4FF496721A6011E00E4B1B6810
:10023C00013B0D4A13600C4B1B68002B08D1074B7C
:10024C001B68002B01D1FFF7B1FF074B64221A602A
:10025C0000BF80BD0400002000000020080000202A
:10026C00001001400C0000203000002080B400AFD2
:10027C00034B01221A6000BFBD4680BC704700BF13
:10028C006800002080B500AF224B1B68224A136027
:10029C00224B1B681F4A13604FF48041204801F029
:1002AC00EFFC03461A461D4B1A601B4B1A68194B80
:1002BC001B689A422CD1174B1A68184B1B689A4230
:1002CC0026D1184B1A68154B1B689A420ED0134B4B
:1002DC001B68144A1360114B1B68002B18D1FFF7D5
:1002EC00C5FF114B4FF496721A6011E00E4B1B6850
:1002FC00013B0D4A13600C4B1B68002B08D1074BBC
:10030C001B68002B01D1FFF7B1FF074B64221A6069
:10031C0000BF80BD14000020100000201800002039
:10032C00001001401C0000203400002080B400AFFD
:10033C00034B01221A6000BFBD4680BC704700BF52
:10034C006C00002080B500AF224B1B68224A136062
:10035C00224B1B681F4A13604FF40041204801F0E8
:10036C008FFC03461A461D4B1A601B4B1A68194B1F
:10037C001B689A422CD1174B1A68184B1B689A426F
:10038C0026D1184B1A68154B1B689A420ED0134B8A
:10039C001B68144A1360114B1B68002B18D1FFF714
:1003AC00C5FF114B4FF496721A6011E00E4B1B688F
:1003BC00013B0D4A13600C4B1B68002B08D1074BFB
:1003CC001B68002B01D1FFF7B1FF074B64221A60A9
:1003DC0000BF80BD24000020200000202800002049
:1003EC00001001402C0000203800002080B500AF28
:1003FC00B04B1B68143B092B00F2718301A252F81D
:10040C0023F000BF39040008C90400087105000876
:10041C0019060008CD060008750700081D0800081D
:10042C00C5080008790900081F0A000800220121EC
:10043C00A14801F03CFC002202219F4801F037FC4E
:10044C00002204219C4801F032FC002208219A4829
:10045C0001F02DFC00221021974801F028FC00220D
:10046C002021954801F023FC01224021924801F003
:10047C001EFC924B1B68012B06D18E4B14221A606A
:10048C0042F2107000F0F2FFFFF76CFE0346012BF6
:10049C0006D1884B01221A6042F2107000F0E6FF80
:1004AC00FFF772FE0346012B40F00683814B0922B5
:1004BC001A6042F2107000F0D9FFFDE20122012116
:1004CC007D4801F0F4FB002202217B4801F0EFFB98
:1004DC0000220421784801F0EAFB01220821764829
:1004EC0001F0E5FB01221021734801F0E0FB012231
:1004FC002021714801F0DBFB012240216E4801F004
:10050C00D6FB6E4B1B68012B06D16A4B14221A606A
:10051C0042F2107000F0AAFFFFF724FE0346012BF5
:10052C0006D1644B02221A6042F2107000F09EFF5A
:10053C00FFF72AFE0346012B06D15E4B00221A6000
:10054C0042F2107000F092FFFFF7FAFD0346012B08
:10055C0040F0B482574B00221A6042F2107000F047
:10056C0085FFABE200220121534801F0A0FB0022E1
:10057C000221514801F09BFB012204214E4801F05D
:10058C0096FB002208214C4801F091FB002210211F
:10059C00494801F08CFB01222021474801F087FBE0
:1005AC0000224021444801F082FB444B1B68012B84
:1005BC0006D1404B15221A6042F2107000F056FF23
:1005CC00FFF7D0FD0346012B06D13A4B03221A60EC
:1005DC0042F2107000F04AFFFFF7D6FD0346012BE4
:1005EC0006D1344B01221A6042F2107000F03EFF2B
:1005FC00FFF7A6FD0346012B40F062822D4B002233
:10060C001A6042F2107000F031FF59E20022012111
:10061C00294801F04CFB00220221274801F047FB3E
:10062C0000220421244801F042FB00220821224828
:10063C0001F03DFB012210211F4801F038FB012283
:10064C0020211D4801F033FB002240211A4801F003
:10065C002EFB1A4B1B68012B06D1164B16221A6067
:10066C0042F2107000F002FFFFF77CFD0346012BF5
:10067C0006D1104B04221A6042F2107000F0F6FE04
:10068C00FFF782FD0346012B06D10A4B02221A60AA
:10069C0042F2107000F0EAFEFFF752FD0346012B08
:1006AC0040F01082034B00221A6042F2107000F0EE
:1006BC00DDFE07E270000020000C0140C0000020AD
:1006CC0001220121A64801F0F2FA00220221A448DD
:1006DC0001F0EDFA00220421A14801F0E8FA012210
:1006EC0008219F4801F0E3FA012210219C4801F0F7
:1006FC00DEFA002220219A4801F0D9FA002240218A
:10070C00974801F0D4FA974B1B68012B06D1964BF6
:10071C0017221A6042F2107000F0A8FEFFF722FDBB
:10072C000346012B06D1904B05221A6042F2107041
:10073C0000F09CFEFFF728FD0346012B06D18A4BE7
:10074C0003221A6042F2107000F090FEFFF7F8FCE2
:10075C000346012B40F0B881834B00221A6042F211
:10076C00107000F083FEAFE1002201217C4801F003
:10077C009EFA012202217A4801F099FA0022042102
:10078C00774801F094FA00220821754801F08FFA9D
:10079C0001221021724801F08AFA002220217048AF
:1007AC0001F085FA002240216D4801F080FA6D4B72
:1007BC001B68012B06D16C4B18221A6042F2107088
:1007CC0000F054FEFFF7CEFC0346012B06D1664B1E
:1007DC0006221A6042F2107000F048FEFFF7D4FCBB
:1007EC000346012B06D1604B04221A6042F21070B2
:1007FC0000F03CFEFFF7A4FC0346012B40F06681A1
:10080C00594B00221A6042F2107000F02FFE5DE18D
:10081C0000220121524801F04AFA012202215048DB
:10082C0001F045FA002204214D4801F040FA002263
:10083C0008214B4801F03BFA00221021484801F0F6
:10084C0036FA00222021464801F031FA00224021DC
:10085C00434801F02CFA434B1B68012B06D1424B49
:10086C0019221A6042F2107000F000FEFFF77AFCB9
:10087C000346012B06D13C4B07221A6042F2107042
:10088C0000F0F4FDFFF780FC0346012B06D1364B3C
:10089C0005221A6042F2107000F0E8FDFFF750FCE0
:1008AC000346012B40F014812F4B00221A6042F2B8
:1008BC00107000F0DBFD0BE100220121284801F053
:1008CC00F6F900220221264801F0F1F90022042158
:1008DC00234801F0ECF901220821214801F0E7F945
:1008EC00012210211E4801F0E2F9012220211C48AE
:1008FC0001F0DDF901224021194801F0D8F9194B1A
:10090C001B68012B06D1184B1A221A6042F2107088
:10091C0000F0ACFDFFF726FC0346012B06D1124B71
:10092C0008221A6042F2107000F0A0FDFFF72CFCB8
:10093C000346012B06D10C4B06221A6042F21070B2
:10094C0000F094FDFFF7FCFB0346012B40F0C28046
:10095C00054B00221A6042F2107000F087FDB9E0DE
:10096C00000C0140C000002070000020002201217A
:10097C005C4801F09CF9002202215A4801F097F9D9
:10098C0000220421574801F092F900220821554811
:10099C0001F08DF900221021524801F088F9002253
:1009AC002021504801F083F9002240214D4801F0EC
:1009BC007EF94D4B1B68012B06D14C4B1B221A6048
:1009CC0042F2107000F052FDFFF7CCFB0346012BF6
:1009DC0006D1464B09221A6042F2107000F046FD17
:1009EC00FFF7D2FB0346012B06D1404B07221A60BE
:1009FC0042F2107000F03AFDFFF7A2FB0346012B08
:100A0C006AD13A4B00221A6042F2107000F02EFDAF
:100A1C0062E000220121334801F049F90022022151
:100A2C00304801F044F9002204212E4801F03FF92E
:100A3C00002208212B4801F03AF901221021294803
:100A4C0001F035F900222021264801F030F900226E
:100A5C004021244801F02BF9234B1B68012B06D1B4
:100A6C00224B1C221A6042F2107000F0FFFCFFF7C0
:100A7C0079FB0346012B06D11C4B00221A6042F273
:100A8C00107000F0F3FCFFF77FFB0346012B06D13F
:100A9C00164B08221A6042F2107000F0E7FCFFF7C8
:100AAC004FFB0346012B19D1104B00221A6042F266
:100ABC00107000F0DBFC11E000BF10E000BF0EE096
:100ACC0000BF0CE000BF0AE000BF08E000BF06E07A
:100ADC0000BF04E000BF02E000BF00E000BF00BFA9
:100AEC0080BD00BF000C0140C00000207000002041
:100AFC0080B500AFAF4B1B68092B00F25D8301A2E0
:100B0C0052F823F0390B0008C90B0008710C0008CF
:100B1C00190D0008CD0D0008750E00081D0F0008FA
:100B2C00C50F0008791000081F11000800220121D0
:100B3C00A14801F0BCF8002202219F4801F0B7F84F
:100B4C00002204219C4801F0B2F8002208219A48A6
:100B5C0001F0ADF800221021974801F0A8F800220E
:100B6C002021954801F0A3F801224021924801F080
:100B7C009EF8924B1B68012B06D18E4B14221A60E7
:100B8C0042F2107000F072FCFFF7ECFA0346012BF6
:100B9C0006D1884B01221A6042F2107000F066FCFC
:100BAC00FFF7F2FA0346012B40F00883814B092230
:100BBC001A6042F2107000F059FCFFE20122012190
:100BCC007D4801F074F8002202217B4801F06FF897
:100BDC0000220421784801F06AF8012208217648A5
:100BEC0001F065F801221021734801F060F8012230
:100BFC002021714801F05BF8012240216E4801F080
:100C0C0056F86E4B1B68012B06D16A4B14221A60E6
:100C1C0042F2107000F02AFCFFF7A4FA0346012BF5
:100C2C0006D1644B02221A6042F2107000F01EFCD6
:100C3C00FFF7AAFA0346012B06D15E4B00221A607D
:100C4C0042F2107000F012FCFFF77AFA0346012B07
:100C5C0040F0B682574B00221A6042F2107000F03E
:100C6C0005FCADE200220121534801F020F80022DE
:100C7C000221514801F01BF8012204214E4801F0D9
:100C8C0016F8002208214C4801F011F8002210211E
:100C9C00494801F00CF801222021474801F007F8DF
:100CAC0000224021444801F002F8444B1B68012B00
:100CBC0006D1404B15221A6042F2107000F0D6FBA0
:100CCC00FFF750FA0346012B06D13A4B03221A6068
:100CDC0042F2107000F0CAFBFFF756FA0346012BE4
:100CEC0006D1344B01221A6042F2107000F0BEFBA8
:100CFC00FFF726FA0346012B40F064822D4B0022AD
:100D0C001A6042F2107000F0B1FB5BE2002201218C
:100D1C00294800F0CCFF00220221274800F0C7FF31
:100D2C0000220421244800F0C2FF0022082122489E
:100D3C0000F0BDFF012210211F4800F0B8FF012276
:100D4C0020211D4800F0B3FF002240211A4800F07A
:100D5C00AEFF1A4B1B68012B06D1164B16221A60DC
:100D6C0042F2107000F082FBFFF7FCF90346012BF6
:100D7C0006D1104B04221A6042F2107000F076FB80
:100D8C00FFF702FA0346012B06D10A4B02221A6026
:100D9C0042F2107000F06AFBFFF7D2F90346012B08
:100DAC0040F01282034B00221A6042F2107000F0E5
:100DBC005DFB09E270000020000C0140C000002027
:100DCC0001220121A64800F072FF00220221A44852
:100DDC0000F06DFF00220421A14800F068FF012201
:100DEC0008219F4800F063FF012210219C4800F06D
:100DFC005EFF002220219A4800F059FF002240217A
:100E0C00974800F054FF974B1B68012B06D1964B6B
:100E1C0017221A6042F2107000F028FBFFF7A2F9BB
:100E2C000346012B06D1904B05221A6042F210703A
:100E3C0000F01CFBFFF7A8F90346012B06D18A4BE7
:100E4C0003221A6042F2107000F010FBFFF778F9E1
:100E5C000346012B40F0BA81834B00221A6042F208
:100E6C00107000F003FBB1E1002201217C4800F07E
:100E7C001EFF012202217A4800F019FF00220421F2
:100E8C00774800F014FF00220821754800F00FFF8E
:100E9C0001221021724800F00AFF00222021704824
:100EAC0000F005FF002240216D4800F000FF6D4B63
:100EBC001B68012B06D16C4B18221A6042F2107081
:100ECC0000F0D4FAFFF74EF90346012B06D1664B1E
:100EDC0006221A6042F2107000F0C8FAFFF754F9BB
:100EEC000346012B06D1604B04221A6042F21070AB
:100EFC0000F0BCFAFFF724F90346012B40F068819F
:100F0C00594B00221A6042F2107000F0AFFA5FE108
:100F1C0000220121524800F0CAFE01220221504851
:100F2C0000F0C5FE002204214D4800F0C0FE002256
:100F3C0008214B4800F0BBFE00221021484800F06D
:100F4C00B6FE00222021464800F0B1FE00224021CE
:100F5C00434800F0ACFE434B1B68012B06D1424BBF
:100F6C0019221A6042F2107000F080FAFFF7FAF8BA
:100F7C000346012B06D13C4B07221A6042F210703B
:100F8C0000F074FAFFF700F90346012B06D1364B3B
:100F9C0005221A6042F2107000F068FAFFF7D0F8E0
:100FAC000346012B40F016812F4B00221A6042F2AF
:100FBC00107000F05BFA0DE100220121284800F0CE
:100FCC0076FE00220221264800F071FE0022042148
:100FDC00234800F06CFE01220821214800F067FE36
:100FEC00012210211E4800F062FE012220211C4823
:100FFC0000F05DFE01224021194800F058FE194B0B
:10100C001B68012B06D1184B1A221A6042F2107081
:10101C0000F02CFAFFF7A6F80346012B06D1124B71
:10102C0008221A6042F2107000F020FAFFF7ACF8B8
:10103C000346012B06D10C4B06221A6042F21070AB
:10104C0000F014FAFFF77CF80346012B40F0C48043
:10105C00054B00221A6042F2107000F007FABBE058
:10106C00000C0140C0000020700000200022012173
:10107C005D4800F01CFE002202215B4800F017FEC8
:10108C0000220421584800F012FE00220821564884
:10109C0000F00DFE00221021534800F008FE002243
:1010AC002021514800F003FE002240214E4800F060
:1010BC00FEFD4E4B1B68012B06D14D4B1B221A60BB
:1010CC0042F2107000F0D2F9FFF74CF80346012BF6
:1010DC0006D1474B09221A6042F2107000F0C6F993
:1010EC00FFF752F80346012B06D1414B07221A6039
:1010FC0042F2107000F0BAF9FFF722F80346012B08
:10110C006CD13B4B00221A6042F2107000F0AEF929
:10111C0064E000220121344800F0C9FD00220221C4
:10112C00314800F0C4FD002204212F4800F0BFFD1F
:10113C00002208212C4800F0BAFD012210212A4877
:10114C0000F0B5FD00222021274800F0B0FD002260
:10115C004021254800F0ABFD244B1B68012B06D128
:10116C00234B1C221A6042F2107000F07FF9FEF73C
:10117C00F9FF0346012B06D11D4B00221A6042F2E7
:10118C00107000F073F9FEF7FFFF0346012B06D138
:10119C00174B08221A6042F2107000F067F9FEF744
:1011AC00CFFF0346012B1BD1114B00221A6042F2D8
:1011BC00107000F05BF913E000BF12E000BF10E00C
:1011CC0000BF0EE000BF0CE000BF0AE000BF08E06B
:1011DC0000BF06E000BF04E000BF02E000BF00E07B
:1011EC0000BF00BF80BD00BF000C0140C00000204C
:1011FC007000002080B500AF00F056FA00F02AF81D
:10120C0000F0B0F800F062F80E4801F0B9F90E4B9E
:10121C0009221A6042F2107000F028F9642000F0E4
:10122C0041F9FFF765FCFFF7E1F8084B1B68012B50
:10123C00F7D12021064800F052FD4FF47A7000F0EF
:10124C0031F9EEE77400002070000020C800002087
:10125C000008014080B590B000AF07F118032822B8
:10126C000021184601F044FD3B1D00221A605A6013
:10127C009A60DA601A610223BB610123BB621023FE
:10128C00FB6200237B6307F11803184600F040FD56
:10129C000346002B01D000F0E3F80F237B60002302
:1012AC00BB600023FB6000233B6100237B613B1D83
:1012BC000021184600F0AEFF0346002B01D000F0D1
:1012CC00CFF800BF4037BD4680BD000080B586B06A
:1012DC0000AF07F1080300221A605A609A60DA60C6
:1012EC003B4600221A605A601D4B4FF080421A6038
:1012FC001B4B41F63F725A60194B00229A60184BF7
:10130C000922DA60164B00221A61154B00229A61F1
:10131C00134801F0E5F80346002B01D000F0A0F8CB
:10132C004FF48053BB6007F1080319460C4801F0D9
:10133C007BFA0346002B01D000F092F800233B60AF
:10134C0000237B603B461946054801F043FC0346ED
:10135C00002B01D000F084F800BF1837BD4680BDCB
:10136C007400002080B588B000AF07F11003002294
:10137C001A605A609A60DA602D4B9B692C4A43F0D4
:10138C00100393612A4B9B6903F01003FB60FB680D
:10139C00274B9B69264A43F004039361244B9B69BA
:1013AC0003F00403BB60BB68214B9B69204A43F0EC
:1013BC00080393611E4B9B6903F008037B607B68F9
:1013CC00002220211B4800F072FC00227F211A48C9
:1013DC0000F06DFC4FF460433B6100237B61012303
:1013EC00BB6107F110031946144800F0CDFA202315
:1013FC003B6101237B610023BB610223FB6107F18D
:10140C00100319460B4800F0BFFA7F233B61012300
:10141C007B610023BB610223FB6107F110031946BA
:10142C00054800F0B1FA00BF2037BD4680BD00BFB3
:10143C000010024000080140000C01400010014067
:10144C0080B582B000AF786000F048F8FEF7BAFEC5
:10145C00FEF718FFFEF776FF00BF0837BD4680BDCC
:10146C0080B400AF72B600BFFEE7000080B483B05A
:10147C0000AF78607B68084A82FB03129210DB177E
:10148C00D31A064A1360064B00221A6000BF0C37B1
:10149C00BD4680BC704700BF67666666BC00002016
:1014AC00C000002080B483B000AF78607B68084A2D
:1014BC0082FB03129210DB17D31A064A1360064BF9
:1014CC0000221A6000BF0C37BD4680BC704700BFBD
:1014DC0067666666C4000020C800002080B400AFB8
:1014EC00194B1B68002B0BDD174B1B68013B164A75
:1014FC001360154B1B68002B02DC144B01221A6085
:10150C00134B1B68002B0BDD114B1B68013B104A66
:10151C0013600F4B1B68002B02DC0E4B01221A6070
:10152C000D4B1B68002B0BDD0B4B1B68013B0A4A58
:10153C001360094B1B68002B02DC084B01221A605C
:10154C0000BFBD4680BC7047BC000020C00000201E
:10155C00C4000020C8000020CC000020D0000020D7
:10156C0080B483B000AF0E4B9B690D4A43F001036E
:10157C0093610B4B9B6903F001037B607B68084B09
:10158C00DB69074A43F08053D361054BDB6903F0F9
:10159C0080533B603B6800BF0C37BD4680BC704736
:1015AC000010024080B584B000AF78607B681B6887
:1015BC00B3F1804F13D10C4BDB690B4A43F00103A1
:1015CC00D361094BDB6903F00103FB60FB6800226C
:1015DC0000211C2000F0A1F91C2000F0BAF900BF7A
:1015EC001037BD4680BD00BF0010024080B400AF74
:1015FC00FEE780B400AFFEE780B400AFFEE780B436
:10160C0000AFFEE780B400AFFEE780B400AF00BFD0
:10161C00BD4680BC704780B400AF00BFBD4680BCE7
:10162C00704780B400AF00BFBD4680BC704780B52A
:10163C0000AF00F07FF800BF80BD000080B500AFA8
:10164C00024800F0E9FF00BF80BD00BF740000201D
:10165C0080B400AF00BFBD4680BC70470C480D493C
:10166C000D4A002302E0D458C4500433C4188C42F1
:10167C00F9D30A4A0A4C002301E013600432A24257
:10168C00FBD3FFF7E5FF01F00FFBFFF7B3FD70474E
:10169C0000000020480000204C2D000848000020CD
:1016AC00D8000020FEE7000080B500AF084B1B6897
:1016BC00074A43F010031360032000F023F90F20B6
:1016CC0000F008F8FFF74CFF0023184680BD00BF60
:1016DC000020024080B582B000AF7860124B1A68CF
:1016EC00124B1B7819464FF47A73B3FBF1F3B2FB30
:1016FC00F3F3184600F03BF90346002B01D001230D
:10170C000EE07B680F2B0AD8002279684FF0FF306F
:10171C0000F003F9064A7B681360002300E0012304
:10172C0018460837BD4680BD3C0000204400002010
:10173C004000002080B400AF054B1B781A46054BC7
:10174C001B681344034A136000BFBD4680BC70473E
:10175C0044000020D400002080B400AF024B1B6872
:10176C001846BD4680BC7047D400002080B485B0BC
:10177C0000AF78607B6803F00703FB600C4BDB6801
:10178C00BB60BA684FF6FF031340BB60FB681A02DC
:10179C00BB68134343F0BF6343F40033BB60044A9C
:1017AC00BB68D36000BF1437BD4680BC704700BF18
:1017BC0000ED00E080B400AF044BDB681B0A03F0C3
:1017CC0007031846BD4680BC704700BF00ED00E023
:1017DC0080B483B000AF0346FB7197F90730002B40
:1017EC000BDBFB7903F01F02064997F907305B0905
:1017FC00012000FA02F241F8232000BF0C37BD464D
:10180C0080BC704700E100E080B483B000AF0346B9
:10181C003960FB7197F90730002B0ADB3B68DAB2B1
:10182C000C4997F907301201D2B20B4483F800230C
:10183C000AE03B68DAB20849FB7903F00F03043B7A
:10184C001201D2B20B441A7600BF0C37BD4680BCD5
:10185C00704700BF00E100E000ED00E080B489B00B
:10186C0000AFF860B9607A60FB6803F00703FB61B6
:10187C00FB69C3F10703042B28BF0423BB61FB697D
:10188C000433062B02D9FB69033B00E000237B6188
:10189C004FF0FF32BB6902FA03F3DA43BB681A401C
:1018AC007B699A404FF0FF317B6901FA03F3D9430E
:1018BC007B680B40134318462437BD4680BC7047E9
:1018CC0080B582B000AF78607B68013BB3F1807F5C
:1018DC0001D301230FE00A4A7B68013B53600F21BF
:1018EC004FF0FF30FFF790FF054B00229A60044B3E
:1018FC0007221A60002318460837BD4680BD00BF7A
:10190C0010E000E080B582B000AF78607868FFF737
:10191C002DFF00BF0837BD4680BD80B586B000AF37
:10192C000346B9607A60FB7300237B61FFF742FFCB
:10193C0078617A68B9687869FFF790FF024697F981
:10194C000F3011461846FFF75FFF00BF1837BD4632
:10195C0080BD80B582B000AF0346FB7197F90730AC
:10196C001846FFF735FF00BF0837BD4680BD80B570
:10197C0082B000AF78607868FFF7A2FF0346184684
:10198C000837BD4680BD000080B48BB000AF7860D6
:10199C00396000237B6200233B6261E101227B6A98
:1019AC0002FA03F3FB613B681B68FA691340BB61E5
:1019BC00BA69FB699A4240F050813B685B68974A70
:1019CC0093425ED0954A934275D8954A934258D02B
:1019DC00934A93426FD8934A934252D0914A93427E
:1019EC0069D8914A93424CD08F4A934263D88F4A1C
:1019FC00934246D08D4A93425DD8122B2AD8122B93
:101A0C0059D801A252F823F08F1A0008691A00085D
:101A1C007B1A0008BD1A0008C31A0008C31A000874
:101A2C00C31A0008C31A0008C31A0008C31A000816
:101A3C00C31A0008C31A0008C31A0008C31A000806
:101A4C00C31A0008C31A0008C31A0008711A000848
:101A5C00851A0008764A934213D02CE03B68DB6869
:101A6C003B6229E03B68DB6804333B6224E03B6863
:101A7C00DB6808333B621FE03B68DB680C333B627E
:101A8C001AE03B689B68002B02D104233B6213E0F5
:101A9C003B689B68012B05D108233B627B68FA6984
:101AAC001A6109E008233B627B68FA695A6103E01A
:101ABC0000233B6200E000BFBB69FF2B01D87B68B1
:101ACC0001E07B6804337B61BB69FF2B02D87B6A26
:101ADC009B0002E07B6A083B9B003B617B691A68B8
:101AEC000F213B6901FA03F3DB431A40396A3B6966
:101AFC0001FA03F31A437B691A603B685B6803F0D5
:101B0C008053002B00F0A9804A4B9B69494A43F053
:101B1C0001039361474B9B6903F00103BB60BB68F6
:101B2C00454A7B6A9B08023352F82330FB607B6A80
:101B3C0003F003039B000F2202FA03F3DB43FA6862
:101B4C001340FB607B683D4A93420DD07B683C4A56
:101B5C00934207D07B683B4A934201D1022304E0B5
:101B6C00032302E0012300E000237A6A02F003025F
:101B7C0092009340FA681343FB602F497B6A9B08E1
:101B8C000233FA6841F823203B685B6803F4803326
:101B9C00002B06D02C4B1A682B49BB6913430B60E6
:101BAC0006E0294B1A68BB69DB43274913400B60DD
:101BBC003B685B6803F40033002B06D0224B5A6859
:101BCC002149BB6913434B6006E01F4B5A68BB6944
:101BDC00DB431D4913404B603B685B6803F4801387
:101BEC00002B06D0184B9A681749BB6913438B60BE
:101BFC0006E0154B9A68BB69DB43134913408B60B5
:101C0C003B685B6803F40013002B1FD00E4BDA68A3
:101C1C000D49BB691343CB601FE000BF00003210BD
:101C2C0000003110000022100000211000001210E2
:101C3C00000011100010024000000140000801409B
:101C4C00000C014000100140000401400B4BDA680D
:101C5C00BB69DB4309491340CB607B6A01337B6270
:101C6C003B681A687B6A22FA03F3002B7FF496AE6A
:101C7C0000BF00BF2C37BD4680BC7047000401403C
:101C8C0080B485B000AF78600B467B807B689A6827
:101C9C007B881340002B02D00123FB7301E000234F
:101CAC00FB73FB7B18461437BD4680BC704780B471
:101CBC0083B000AF78600B467B8013467B707B78DB
:101CCC00002B03D07A887B681A6103E07B881A04A6
:101CDC007B681A6100BF0C37BD4680BC704780B46E
:101CEC0085B000AF78600B467B807B68DB68FB605F
:101CFC007A88FB6813401A04FB68D9437B880B4035
:101D0C001A437B681A6100BF1437BD4680BC70470C
:101D1C0080B586B000AF78607B68002B01D10123C1
:101D2C0072E27B681B6803F00103002B00F08780D4
:101D3C00924B5B6803F00C03042B0CD08F4B5B684D
:101D4C0003F00C03082B12D18C4B5B6803F480332B
:101D5C00B3F5803F0BD1894B1B6803F40033002B88
:101D6C006CD07B685B68002B68D101234CE27B68EC
:101D7C005B68B3F5803F06D1804B1B687F4A43F408
:101D8C00803313602EE07B685B68002B0CD17B4B9F
:101D9C001B687A4A23F480331360784B1B68774AAC
:101DAC0023F4802313601DE07B685B68B3F5A02FE0
:101DBC000CD1724B1B68714A43F4802313606F4B38
:101DCC001B686E4A43F4803313600BE06B4B1B684B
:101DDC006A4A23F480331360684B1B68674A23F408
:101DEC00802313607B685B68002B13D0FFF7B4FC77
:101DFC00386108E0FFF7B0FC02463B69D31A642B4C
:101E0C0001D9032300E25D4B1B6803F40033002B64
:101E1C00F0D014E0FFF7A0FC386108E0FFF79CFC61
:101E2C0002463B69D31A642B01D90323ECE1534BD3
:101E3C001B6803F40033002BF0D100E000BF7B687B
:101E4C001B6803F00203002B63D04C4B5B6803F060
:101E5C000C03002B0BD0494B5B6803F00C03082BD5
:101E6C001CD1464B5B6803F48033002B16D1434BDB
:101E7C001B6803F00203002B05D07B681B69012B48
:101E8C0001D00123C0E13D4B1B6823F0F8027B68B5
:101E9C005B69DB00394913430B603AE07B681B69D3
:101EAC00002B20D0364B01221A60FFF755FC38610D
:101EBC0008E0FFF751FC02463B69D31A022B01D90B
:101ECC000323A1E12D4B1B6803F00203002BF0D080
:101EDC002A4B1B6823F0F8027B685B69DB002749FF
:101EEC0013430B6015E0264B00221A60FFF734FCFD
:101EFC00386108E0FFF730FC02463B69D31A022B2D
:101F0C0001D9032380E11D4B1B6803F00203002B56
:101F1C00F0D17B681B6803F00803002B3AD07B6878
:101F2C009B69002B19D0174B01221A60FFF714FC88
:101F3C00386108E0FFF710FC02463B69D31A022B0C
:101F4C0001D9032360E10D4B5B6A03F00203002B04
:101F5C00F0D0012000F0A6FA1CE00A4B00221A6017
:101F6C00FFF7FAFB38610FE0FFF7F6FB02463B691F
:101F7C00D31A022B08D9032346E100BF00100240FC
:101F8C000000424280044242924B5B6A03F002031F
:101F9C00002BE9D17B681B6803F00403002B00F0D5
:101FAC00A6800023FB758B4BDB6903F08053002B61
:101FBC000DD1884BDB69874A43F08053D361854B45
:101FCC00DB6903F08053BB60BB680123FB75824B5C
:101FDC001B6803F48073002B18D17F4B1B687E4A5F
:101FEC0043F480731360FFF7B7FB386108E0FFF729
:101FFC00B3FB02463B69D31A642B01D9032303E1DB
:10200C00754B1B6803F48073002BF0D07B68DB6886
:10201C00012B06D16F4B1B6A6E4A43F0010313620E
:10202C002DE07B68DB68002B0CD16A4B1B6A694A7C
:10203C0023F001031362674B1B6A664A23F0040307
:10204C0013621CE07B68DB68052B0CD1614B1B6AAF
:10205C00604A43F0040313625E4B1B6A5D4A43F013
:10206C00010313620BE05B4B1B6A5A4A23F001031A
:10207C001362584B1B6A574A23F0040313627B68A4
:10208C00DB68002B15D0FFF767FB38610AE0FFF720
:10209C0063FB02463B69D31A41F28832934201D961
:1020AC000323B1E04B4B1B6A03F00203002BEED071
:1020BC0014E0FFF751FB38610AE0FFF74DFB0246D5
:1020CC003B69D31A41F28832934201D903239BE036
:1020DC00404B1B6A03F00203002BEED1FB7D012B5E
:1020EC0005D13C4BDB693B4A23F08053D3617B68C1
:1020FC00DB69002B00F08780364B5B6803F00C0328
:10210C00082B61D07B68DB69022B46D1334B002254
:10211C001A60FFF721FB386108E0FFF71DFB024650
:10212C003B69D31A022B01D903236DE0294B1B68A1
:10213C0003F00073002BF0D17B681B6AB3F5803F72
:10214C0008D1244B5B6823F400327B689B682149DF
:10215C0013434B601F4B5B6823F474127B68196A42
:10216C007B685B6A0B431B4913434B601B4B01227F
:10217C001A60FFF7F1FA386108E0FFF7EDFA024652
:10218C003B69D31A022B01D903233DE0114B1B6889
:10219C0003F00073002BF0D035E0104B00221A60D6
:1021AC00FFF7DAFA386108E0FFF7D6FA02463B6926
:1021BC00D31A022B01D9032326E0064B1B6803F02C
:1021CC000073002BF0D11EE07B68DB69012B07D17B
:1021DC00012319E0001002400070004060004242F0
:1021EC000B4B5B68FB60FB6803F480327B681B6AFB
:1021FC009A4206D1FB6803F470127B685B6A9A42C0
:10220C0001D0012300E0002318461837BD4680BDDD
:10221C000010024080B584B000AF786039607B68F4
:10222C00002B01D10123D0E06A4B1B6803F007039C
:10223C003A689A4210D9674B1B6823F0070265492C
:10224C003B6813430B60634B1B6803F007033A684E
:10225C009A4201D00123B8E07B681B6803F00203AB
:10226C00002B20D07B681B6803F00403002B05D0E7
:10227C00594B5B68584A43F4E06353607B681B68B6
:10228C0003F00803002B05D0534B5B68524A43F410
:10229C0060535360504B5B6823F0F0027B689B6883
:1022AC004D4913434B607B681B6803F00103002B03
:1022BC0040D07B685B68012B07D1474B1B6803F44C
:1022CC000033002B15D101237FE07B685B68022B68
:1022DC0007D1414B1B6803F00073002B09D101237C
:1022EC0073E03D4B1B6803F00203002B01D101236B
:1022FC006BE0394B5B6823F003027B685B68364903
:10230C0013434B60FFF728FAF8600AE0FFF724FA52
:10231C000246FB68D31A41F28832934201D9032357
:10232C0053E02D4B5B6803F00C027B685B689B00F1
:10233C009A42EBD1274B1B6803F007033A689A4289
:10234C0010D2244B1B6823F0070222493B6813432D
:10235C000B60204B1B6803F007033A689A4201D0CC
:10236C00012332E07B681B6803F00403002B08D0C8
:10237C00194B5B6823F4E0627B68DB6816491343F6
:10238C004B607B681B6803F00803002B09D0124BD1
:10239C005B6823F460527B681B69DB000E491343B6
:1023AC004B6000F021F802460B4B5B681B0903F0F5
:1023BC000F030A49CB5C22FA03F3094A1360094B59
:1023CC001B681846FFF786F9002318461037BD46E0
:1023DC0080BD00BF0020024000100240342D0008D8
:1023EC003C0000204000002090B48AB000AF294B84
:1023FC003C1D0FCB84E80F0040F201233B800023EF
:10240C00FB610023BB6100237B6200237B61002303
:10241C003B62214B5B68FB61FB6903F00C03042BF3
:10242C0002D0082B03D02BE01C4B3B622BE0FB694A
:10243C009B0C03F00F0328333B4413F8243C7B61C3
:10244C00FB6903F48033002B12D0134B5B685B0CDD
:10245C0003F0010328333B4413F8283CBB617B6930
:10246C000E4A03FB02F2BB69B2FBF3F37B6204E09E
:10247C007B690B4A02FB03F37B627B6A3B6202E0E3
:10248C00064B3B6200BF3B6A18462837BD4690BCE2
:10249C00704700BF242D00080010024000127A0083
:1024AC0000093D0080B485B000AF78600A4B1B6812
:1024BC000A4AA2FB03235B0A7A6802FB03F3FB6064
:1024CC0000BFFB685A1EFA60002BF9D100BF00BF99
:1024DC001437BD4680BC70473C000020D34D6210C1
:1024EC0080B582B000AF78607B68002B01D10123EE
:1024FC0041E07B6893F83D30DBB2002B06D17B6862
:10250C00002283F83C207868FFF74CF87B680222A5
:10251C0083F83D207B681A687B68043319461046A3
:10252C0000F06AFA7B68012283F846207B6801225E
:10253C0083F83E207B68012283F83F207B680122D0
:10254C0083F840207B68012283F841207B680122BC
:10255C0083F842207B68012283F843207B680122A8
:10256C0083F844207B68012283F845207B68012294
:10257C0083F83D20002318460837BD4680BD000077
:10258C0080B485B000AF78607B6893F83D30DBB2E7
:10259C00012B01D0012335E07B68022283F83D201A
:1025AC007B681B68DA687B681B6842F00102DA60A2
:1025BC007B681B68164A934209D07B681B68B3F191
:1025CC00804F04D07B681B68124A934211D17B6800
:1025DC001B689B6803F00703FB60FB68062B10D09D
:1025EC007B681B681A687B681B6842F001021A60E2
:1025FC0007E07B681B681A687B681B6842F0010265
:10260C001A60002318461437BD4680BC704700BFC3
:10261C00002C01400004004080B582B000AF78600F
:10262C007B681B681B6903F00203022B22D17B68B9
:10263C001B68DB6803F00203022B1BD17B681B6851
:10264C006FF002021A617B6801221A777B681B68A3
:10265C009B6903F00303002B03D0786800F0B1F9F9
:10266C0005E0786800F0A4F9786800F0B3F97B68AD
:10267C0000221A777B681B681B6903F00403042B88
:10268C0022D17B681B68DB6803F00403042B1BD18D
:10269C007B681B686FF004021A617B6802221A7750
:1026AC007B681B689B6903F44073002B03D078682C
:1026BC0000F087F905E0786800F07AF9786800F0A6
:1026CC0089F97B6800221A777B681B681B6903F009
:1026DC000803082B22D17B681B68DB6803F0080316
:1026EC00082B1BD17B681B686FF008021A617B6892
:1026FC0004221A777B681B68DB6903F00303002B49
:10270C0003D0786800F05DF905E0786800F050F9C6
:10271C00786800F05FF97B6800221A777B681B6889
:10272C001B6903F01003102B22D17B681B68DB683C
:10273C0003F01003102B1BD17B681B686FF0100289
:10274C001A617B6808221A777B681B68DB6903F4C3
:10275C004073002B03D0786800F033F905E07868FB
:10276C0000F026F9786800F035F97B6800221A77BA
:10277C007B681B681B6903F00103012B0ED17B687E
:10278C001B68DB6803F00103012B07D17B681B6816
:10279C006FF001021A617868FEF752FE7B681B68C5
:1027AC001B6903F08003802B0ED17B681B68DB68F0
:1027BC0003F08003802B07D17B681B686FF08002CD
:1027CC001A61786800F067FA7B681B681B6903F074
:1027DC004003402B0ED17B681B68DB6803F0400381
:1027EC00402B07D17B681B686FF040021A61786838
:1027FC0000F0F9F87B681B681B6903F02003202BA1
:10280C000ED17B681B68DB6803F02003202B07D1FB
:10281C007B681B686FF020021A61786800F032FA4E
:10282C0000BF0837BD4680BD80B584B000AF78606E
:10283C0039607B6893F83C30012B01D10223B3E063
:10284C007B68012283F83C207B68022283F83D20C0
:10285C007B681B689B68FB60FB6823F07703FB605D
:10286C00FB6823F47F43FB607B681B68FA689A6003
:10287C003B681B68B3F5005F3ED0B3F5005F00F218
:10288C008780B3F5805F00F08580B3F5805F7FD8DB
:10289C00702B1AD0702B7BD8602B50D0602B77D834
:1028AC00502B3CD0502B73D8402B58D0402B6FD88A
:1028BC00302B64D0302B6BD8202B60D0202B67D8DA
:1028CC00002B5CD0102B5AD062E07B6818683B68F8
:1028DC0099683B685A683B68DB6800F05CF97B6878
:1028EC001B689B68FB60FB6843F07703FB607B68AD
:1028FC001B68FA689A604EE07B6818683B689968B8
:10290C003B685A683B68DB6800F045F97B681B68DC
:10291C009A687B681B6842F480429A603BE07B6853
:10292C0018683B6859683B68DB681A4600F0BCF8CD
:10293C007B681B685021184600F013F92BE07B686C
:10294C0018683B6859683B68DB681A4600F0DAF88F
:10295C007B681B686021184600F003F91BE07B685C
:10296C0018683B6859683B68DB681A4600F09CF8AD
:10297C007B681B684021184600F0F3F80BE07B687D
:10298C001A683B681B681946104600F0EAF802E02A
:10299C0000BF00E000BF7B68012283F83D207B680C
:1029AC00002283F83C20002318461037BD4680BD1A
:1029BC0080B483B000AF786000BF0C37BD4680BCDC
:1029CC00704780B483B000AF786000BF0C37BD4651
:1029DC0080BC704780B483B000AF786000BF0C3708
:1029EC00BD4680BC704780B483B000AF786000BF38
:1029FC000C37BD4680BC704780B485B000AF7860A2
:102A0C0039607B681B68FB607B68254A934207D062
:102A1C007B68B3F1804F03D07B68224A934208D184
:102A2C00FB6823F07003FB603B685B68FA68134338
:102A3C00FB607B681A4A934207D07B68B3F1804FE6
:102A4C0003D07B68174A934208D1FB6823F4407388
:102A5C00FB603B68DB68FA681343FB60FB6823F0A0
:102A6C0080023B685B691343FB607B68FA681A6001
:102A7C003B689A687B68DA623B681A687B689A6282
:102A8C007B68074A934203D13B681A697B681A63D7
:102A9C007B6801225A6100BF1437BD4680BC704769
:102AAC00002C01400004004080B487B000AFF860F7
:102ABC00B9607A60FB681B6A7B61FB681B6A23F058
:102ACC000102FB681A62FB689B693B613B6923F05E
:102ADC00F0033B617B681B013A6913433B617B69E3
:102AEC0023F00A037B617A69BB6813437B61FB6843
:102AFC003A699A61FB687A691A6200BF1C37BD4655
:102B0C0080BC704780B487B000AFF860B9607A6061
:102B1C00FB681B6A23F01002FB681A62FB689B6956
:102B2C007B61FB681B6A3B617B6923F470437B61AF
:102B3C007B681B037A6913437B613B6923F0A00319
:102B4C003B61BB681B013A6913433B61FB687A69C3
:102B5C009A61FB683A691A6200BF1C37BD4680BC9B
:102B6C00704780B485B000AF786039607B689B6833
:102B7C00FB60FB6823F07003FB603A68FB6813434F
:102B8C0043F00703FB607B68FA689A6000BF143758
:102B9C00BD4680BC704780B487B000AFF860B960A8
:102BAC007A603B60FB689B687B617B6923F47F43A5
:102BBC007B613B681A027B681A43BB6813437A69D2
:102BCC0013437B61FB687A699A6000BF1C37BD4672
:102BDC0080BC704780B485B000AF786039607B688A
:102BEC0093F83C30012B01D1022341E07B68012298
:102BFC0083F83C207B68022283F83D207B681B68AD
:102C0C005B68FB607B681B689B68BB60FB6823F0A0
:102C1C007003FB603B681B68FA681343FB607B68BE
:102C2C001B68FA685A607B681B68144A934209D087
:102C3C007B681B68B3F1804F04D07B681B68104A1B
:102C4C0093420CD1BB6823F08003BB603B685B688C
:102C5C00BA681343BB607B681B68BA689A607B6870
:102C6C00012283F83D207B68002283F83C2000235E
:102C7C0018461437BD4680BC704700BF002C01407D
:102C8C000004004080B483B000AF786000BF0C3704
:102C9C00BD4680BC704780B483B000AF786000BF85
:102CAC000C37BD4680BC704770B500260C4D0D4CE2
:102CBC00641BA410A64209D100F022F800260A4D8C
:102CCC000A4C641BA410A64205D170BD55F8043BF8
:102CDC0098470136EEE755F8043B98470136F2E782
:102CEC00442D0008442D0008442D0008482D0008F0
:102CFC0003460244934200D1704703F8011BF9E7E5
:102D0C00F8B500BFF8BC08BC9E467047F8B500BFCC
:082D1C00F8BC08BC9E4670479C
:102D240002030405060708090A0B0C0D0E0F101008
:102D34000000000000000000010203040607080967
:042D44003101000851
:042D48000D01000871
:102D4C000100000001000000010000000100000073
:102D5C000100000001000000010000000100000063
:102D6C000100000001000000010000000100000053
:102D7C00C8000000C8000000C80000000024F400D7
:082D8C0010000000010000002E
:040000050800166970
:00000001FF
